{
  "contractName": "Compact",
  "abi": [
    {
      "inputs": [
        {
          "internalType": "address",
          "name": "_server",
          "type": "address"
        },
        {
          "internalType": "uint256[2]",
          "name": "_pk_x",
          "type": "uint256[2]"
        },
        {
          "internalType": "uint256[2]",
          "name": "_pk_y",
          "type": "uint256[2]"
        },
        {
          "internalType": "uint256",
          "name": "_u_x",
          "type": "uint256"
        },
        {
          "internalType": "uint256",
          "name": "_u_y",
          "type": "uint256"
        },
        {
          "internalType": "uint256",
          "name": "_name",
          "type": "uint256"
        },
        {
          "internalType": "uint256",
          "name": "_file_size",
          "type": "uint256"
        }
      ],
      "payable": false,
      "stateMutability": "nonpayable",
      "type": "constructor"
    },
    {
      "constant": true,
      "inputs": [
        {
          "internalType": "uint256",
          "name": "",
          "type": "uint256"
        }
      ],
      "name": "index_challenges",
      "outputs": [
        {
          "internalType": "uint256",
          "name": "i",
          "type": "uint256"
        },
        {
          "internalType": "uint256",
          "name": "nu",
          "type": "uint256"
        }
      ],
      "payable": false,
      "stateMutability": "view",
      "type": "function"
    },
    {
      "constant": true,
      "inputs": [
        {
          "internalType": "uint256",
          "name": "",
          "type": "uint256"
        }
      ],
      "name": "index_proofs",
      "outputs": [
        {
          "internalType": "uint256",
          "name": "mu",
          "type": "uint256"
        },
        {
          "components": [
            {
              "internalType": "uint256",
              "name": "x",
              "type": "uint256"
            },
            {
              "internalType": "uint256",
              "name": "y",
              "type": "uint256"
            }
          ],
          "internalType": "struct Pairing.G1Point",
          "name": "sigma",
          "type": "tuple"
        },
        {
          "internalType": "bool",
          "name": "valid",
          "type": "bool"
        }
      ],
      "payable": false,
      "stateMutability": "view",
      "type": "function"
    },
    {
      "constant": false,
      "inputs": [
        {
          "internalType": "uint256",
          "name": "_i",
          "type": "uint256"
        },
        {
          "internalType": "uint256",
          "name": "_nu",
          "type": "uint256"
        }
      ],
      "name": "challenge",
      "outputs": [],
      "payable": false,
      "stateMutability": "nonpayable",
      "type": "function"
    },
    {
      "constant": false,
      "inputs": [
        {
          "internalType": "uint256",
          "name": "_mu",
          "type": "uint256"
        },
        {
          "internalType": "uint256",
          "name": "_sigma_x",
          "type": "uint256"
        },
        {
          "internalType": "uint256",
          "name": "_sigma_y",
          "type": "uint256"
        }
      ],
      "name": "proof",
      "outputs": [],
      "payable": false,
      "stateMutability": "nonpayable",
      "type": "function"
    },
    {
      "constant": true,
      "inputs": [],
      "name": "getChallengesLength",
      "outputs": [
        {
          "internalType": "uint256",
          "name": "",
          "type": "uint256"
        }
      ],
      "payable": false,
      "stateMutability": "view",
      "type": "function"
    },
    {
      "constant": true,
      "inputs": [],
      "name": "getProofsLength",
      "outputs": [
        {
          "internalType": "uint256",
          "name": "",
          "type": "uint256"
        }
      ],
      "payable": false,
      "stateMutability": "view",
      "type": "function"
    }
  ],
  "bytecode": "0x60806040523480156200001157600080fd5b506040516200183038038062001830833981810160405262000037919081019062000318565b60008114156200007e576040517f08c379a000000000000000000000000000000000000000000000000000000000815260040162000075906200046d565b60405180910390fd5b600073ffffffffffffffffffffffffffffffffffffffff168773ffffffffffffffffffffffffffffffffffffffff161480620000e557503373ffffffffffffffffffffffffffffffffffffffff168773ffffffffffffffffffffffffffffffffffffffff16145b1562000128576040517f08c379a00000000000000000000000000000000000000000000000000000000081526004016200011f906200044b565b60405180910390fd5b866000806101000a81548173ffffffffffffffffffffffffffffffffffffffff021916908373ffffffffffffffffffffffffffffffffffffffff160217905550604051806040016040528087815260200186815250600160008201518160000190600262000198929190620001ff565b50602082015181600201906002620001b2929190620001ff565b509050506040518060400160405280858152602001848152506005600082015181600001556020820151816001015590505081600781905550806008819055505050505050505062000563565b826002810192821562000231579160200282015b828111156200023057825182559160200191906001019062000213565b5b50905062000240919062000244565b5090565b6200026991905b80821115620002655760008160009055506001016200024b565b5090565b90565b6000815190506200027d816200052f565b92915050565b600082601f8301126200029557600080fd5b6002620002ac620002a682620004bd565b6200048f565b91508183856020840282011115620002c357600080fd5b60005b83811015620002f75781620002dc888262000301565b845260208401935060208301925050600181019050620002c6565b5050505092915050565b600081519050620003128162000549565b92915050565b6000806000806000806000610120888a0312156200033557600080fd5b6000620003458a828b016200026c565b9750506020620003588a828b0162000283565b96505060606200036b8a828b0162000283565b95505060a06200037e8a828b0162000301565b94505060c0620003918a828b0162000301565b93505060e0620003a48a828b0162000301565b925050610100620003b88a828b0162000301565b91505092959891949750929550565b6000620003d6601783620004e0565b91507f536572766572206164647265737320696e76616c69642e0000000000000000006000830152602082019050919050565b600062000418601f83620004e0565b91507f46696c652073697a65206d757374206265207375706572696f7220746f2030006000830152602082019050919050565b600060208201905081810360008301526200046681620003c7565b9050919050565b60006020820190508181036000830152620004888162000409565b9050919050565b6000604051905081810181811067ffffffffffffffff82111715620004b357600080fd5b8060405250919050565b600067ffffffffffffffff821115620004d557600080fd5b602082029050919050565b600082825260208201905092915050565b6000620004fe8262000505565b9050919050565b600073ffffffffffffffffffffffffffffffffffffffff82169050919050565b6000819050919050565b6200053a81620004f1565b81146200054657600080fd5b50565b620005548162000525565b81146200056057600080fd5b50565b6112bd80620005736000396000f3fe608060405234801561001057600080fd5b50600436106100625760003560e01c806312f7cf54146100675780632e41489014610099578063aaca168e146100b5578063cfd6d732146100d3578063df9e4440146100f1578063e362edd51461010d575b600080fd5b610081600480360361007c9190810190610e25565b61013e565b604051610090939291906111dc565b60405180910390f35b6100b360048036036100ae9190810190610e4e565b610193565b005b6100bd6102a5565b6040516100ca91906111c1565b60405180910390f35b6100db6102b2565b6040516100e891906111c1565b60405180910390f35b61010b60048036036101069190810190610e8a565b6102bf565b005b61012760048036036101229190810190610e25565b610420565b604051610135929190611213565b60405180910390f35b600c6020528060005260406000206000915090508060000154908060010160405180604001604052908160008201548152602001600182015481525050908060030160009054906101000a900460ff16905083565b6000809054906101000a900473ffffffffffffffffffffffffffffffffffffffff1673ffffffffffffffffffffffffffffffffffffffff163373ffffffffffffffffffffffffffffffffffffffff161415610223576040517f08c379a000000000000000000000000000000000000000000000000000000000815260040161021a90611141565b60405180910390fd5b6000600980805490509080600181540180825580915050906001820390600052602060002001600090919290919091505590506040518060400160405280600854858161026c57fe5b06815260200183815250600a60008381526020019081526020016000206000820151816000015560208201518160010155905050505050565b6000600b80549050905090565b6000600980549050905090565b6000809054906101000a900473ffffffffffffffffffffffffffffffffffffffff1673ffffffffffffffffffffffffffffffffffffffff163373ffffffffffffffffffffffffffffffffffffffff161461034e576040517f08c379a000000000000000000000000000000000000000000000000000000000815260040161034590611121565b60405180910390fd5b6000600b80805490509080600181540180825580915050906001820390600052602060002001600090919290919091505590506040518060600160405280858152602001604051806040016040528086815260200185815250815260200160001515815250600c6000838152602001908152602001600020600082015181600001556020820151816001016000820151816000015560208201518160010155505060408201518160030160006101000a81548160ff02191690831515021790555090505061041a610444565b50505050565b600a6020528060005260406000206000915090508060000154908060010154905082565b6000600c6000600b8054905081526020019081526020016000209050610468610cee565b600a600060098054905081526020019081526020016000206040518060400160405290816000820154815260200160018201548152505090506104a9610d08565b6104c26104b461060c565b836000015160075402610630565b90506104d2818360200151610630565b90506104dc610d08565b61050a6005604051806040016040529081600082015481526020016001820154815250508560000154610630565b905061051681836106f4565b90506105eb61054685600101604051806040016040529081600082015481526020016001820154815250506107df565b61054e610879565b83600160405180604001604052908160008201600280602002604051908101604052809291908260028015610598576020028201915b815481526020019060010190808311610584575b50505050508152602001600282016002806020026040519081016040528092919082600280156105dd576020028201915b8154815260200190600101908083116105c9575b505050505081525050610943565b8460030160006101000a81548160ff02191690831515021790555050505050565b610614610d08565b6040518060400160405280600181526020016002815250905090565b610638610d08565b610640610d22565b83600001518160006003811061065257fe5b60200201818152505083602001518160016003811061066d57fe5b602002018181525050828160026003811061068457fe5b6020020181815250506000610697610d08565b6060816080856000600760145a03f19150816106e8576040517f08c379a00000000000000000000000000000000000000000000000000000000081526004016106df90611161565b60405180910390fd5b80935050505092915050565b6106fc610d08565b610704610d44565b83600001518160006004811061071657fe5b60200201818152505083602001518160016004811061073157fe5b60200201818152505082600001518160026004811061074c57fe5b60200201818152505082602001518160036004811061076757fe5b602002018181525050600060608360c0846000600660145a03f19050806000811461079157610793565bfe5b50806107d4576040517f08c379a00000000000000000000000000000000000000000000000000000000081526004016107cb90611181565b60405180910390fd5b829250505092915050565b6107e7610d08565b60007f30644e72e131a029b85045b68181585d97816a916871ca8d3c208c16d87cfd47905060008360000151148015610824575060008360200151145b15610848576040518060400160405280600081526020016000815250915050610874565b6040518060400160405280846000015181526020018285602001518161086a57fe5b0683038152509150505b919050565b610881610d66565b604051806040016040528060405180604001604052807f198e9393920d483a7260bfb731fb5d25f1aa493335a9e71297e485b7aef312c281526020017f1800deef121f1e76426a00665e5c4479674322d4f75edadd46debd5cd992f6ed815250815260200160405180604001604052807f090689d0585ff075ec9e99ad690c3395bc4b313370b38ef355acdadcd122975b81526020017f12c85ea5db8c6deb4aab71808dcb408fe3d1e7690c43d37b4ce6cc0166fa7daa815250815250905090565b60006060600260405190808252806020026020018201604052801561098257816020015b61096f610d8c565b8152602001906001900390816109675790505b509050606060026040519080825280602002602001820160405280156109c257816020015b6109af610da6565b8152602001906001900390816109a75790505b50905086826000815181106109d357fe5b602002602001018190525084826001815181106109ec57fe5b60200260200101819052508581600081518110610a0557fe5b60200260200101819052508381600181518110610a1e57fe5b6020026020010181905250610a338282610a3f565b92505050949350505050565b60008151835114610a85576040517f08c379a0000000000000000000000000000000000000000000000000000000008152600401610a7c906111a1565b60405180910390fd5b6000835190506000600682029050606081604051908082528060200260200182016040528015610ac45781602001602082028038833980820191505090505b50905060008090505b83811015610c6a57868181518110610ae157fe5b602002602001015160000151826000600684020181518110610aff57fe5b602002602001018181525050868181518110610b1757fe5b602002602001015160200151826001600684020181518110610b3557fe5b602002602001018181525050858181518110610b4d57fe5b602002602001015160000151600060028110610b6557fe5b6020020151826002600684020181518110610b7c57fe5b602002602001018181525050858181518110610b9457fe5b602002602001015160000151600160028110610bac57fe5b6020020151826003600684020181518110610bc357fe5b602002602001018181525050858181518110610bdb57fe5b602002602001015160200151600060028110610bf357fe5b6020020151826004600684020181518110610c0a57fe5b602002602001018181525050858181518110610c2257fe5b602002602001015160200151600160028110610c3a57fe5b6020020151826005600684020181518110610c5157fe5b6020026020010181815250508080600101915050610acd565b50610c73610dcc565b600060208260208602602086016000600860145a03f1905080610ccb576040517f08c379a0000000000000000000000000000000000000000000000000000000008152600401610cc290611101565b60405180910390fd5b600082600060018110610cda57fe5b602002015114159550505050505092915050565b604051806040016040528060008152602001600081525090565b604051806040016040528060008152602001600081525090565b6040518060600160405280600390602082028038833980820191505090505090565b6040518060800160405280600490602082028038833980820191505090505090565b6040518060400160405280610d79610dee565b8152602001610d86610dee565b81525090565b604051806040016040528060008152602001600081525090565b6040518060400160405280610db9610dee565b8152602001610dc6610dee565b81525090565b6040518060200160405280600190602082028038833980820191505090505090565b6040518060400160405280600290602082028038833980820191505090505090565b600081359050610e1f81611263565b92915050565b600060208284031215610e3757600080fd5b6000610e4584828501610e10565b91505092915050565b60008060408385031215610e6157600080fd5b6000610e6f85828601610e10565b9250506020610e8085828601610e10565b9150509250929050565b600080600060608486031215610e9f57600080fd5b6000610ead86828701610e10565b9350506020610ebe86828701610e10565b9250506040610ecf86828701610e10565b9150509250925092565b610ee28161124d565b82525050565b6000610ef560198361123c565b91507f50616972696e67206f7065726174696f6e206661696c65642e000000000000006000830152602082019050919050565b6000610f3560268361123c565b91507f4f6e6c7920746865207365727665722063616e2063616c6c207468697320667560008301527f6e6374696f6e00000000000000000000000000000000000000000000000000006020830152604082019050919050565b6000610f9b602c8361123c565b91507f54686520736572766572206973206e6f742061626c6520746f2063616c6c207460008301527f6869732066756e6374696f6e00000000000000000000000000000000000000006020830152604082019050919050565b6000611001601c8361123c565b91507f506f696e74206d756c7469706c69636174696f6e206661696c65642e000000006000830152602082019050919050565b600061104160158361123c565b91507f506f696e74206164646974696f6e206661696c656400000000000000000000006000830152602082019050919050565b600061108160158361123c565b91507f506f696e7420636f756e74206d69736d617463682e00000000000000000000006000830152602082019050919050565b6040820160008201516110ca60008501826110e3565b5060208201516110dd60208501826110e3565b50505050565b6110ec81611259565b82525050565b6110fb81611259565b82525050565b6000602082019050818103600083015261111a81610ee8565b9050919050565b6000602082019050818103600083015261113a81610f28565b9050919050565b6000602082019050818103600083015261115a81610f8e565b9050919050565b6000602082019050818103600083015261117a81610ff4565b9050919050565b6000602082019050818103600083015261119a81611034565b9050919050565b600060208201905081810360008301526111ba81611074565b9050919050565b60006020820190506111d660008301846110f2565b92915050565b60006080820190506111f160008301866110f2565b6111fe60208301856110b4565b61120b6060830184610ed9565b949350505050565b600060408201905061122860008301856110f2565b61123560208301846110f2565b9392505050565b600082825260208201905092915050565b60008115159050919050565b6000819050919050565b61126c81611259565b811461127757600080fd5b5056fea365627a7a7231582099dd27f7d7cfc5686fe1f5319c5468352b4d526867aecb0e16a16fd92e716a226c6578706572696d656e74616cf564736f6c63430005100040",
  "source": "// SPDX-License-Identifier: MIT\npragma solidity >=0.4.22 <0.9.0;\npragma experimental ABIEncoderV2;\n\nimport \"./Pairing.sol\";\n\n/// @title Public Compact Proof of Retrievability Implemantion\n/// @notice This smart contract is developed for testing purpose only.\n///         There are no rule implemented in this version to secure the\n///         protocol between the client and the server.\n///         Read Compact Proofs of Retrievability for more information.\n/// @author Lucas GICQUEL\ncontract Compact {\n    \n    // to control access to specific functions, I store the server address\n    address server;\n\n    // client metadata used to verify each proof\n    Pairing.G2Point public_key;\n    Pairing.G1Point u;\n    uint name;\n    uint file_size;\n\n    /**\n     * A challenge, sent by anyone but the server, is defined by two integers:\n     *      - i: i-th bit of file to challenge (0 <= i < file_size)\n     *      - nu: independant factor chosen by the client, making each\n     *           challenge unique and unpredictable\n     */\n    struct Challenge {\n        uint i;\n        uint nu;\n    }\n\n    /**\n     * Proof calculated by the server, it mathematically proves that she truly\n     * store the file.\n     * Valid state is true if the proof is valid, false otherwise.\n     */\n    struct Proof {\n        uint mu;\n        Pairing.G1Point sigma;\n        bool valid;\n    }\n\n    uint[] challenges;\n    mapping(uint => Challenge) public index_challenges;\n\n    uint[] proofs;\n    mapping(uint => Proof) public index_proofs;\n\n    /// @notice Called by a client when she wants to store her file in a\n    ///         distant server.\n    ///         She sends all metadata in this part allowing the smart contract\n    ///         to verify the proofs calculated by the server.\n    /// @param _pk_x abscissa of the public key\n    /// @param _pk_y ordinate of the public key\n    /// @param _u_x abscissa of a point u used both to sign and verify\n    /// @param _u_y ordinate of a point u used both to sign and verify\n    /// @param _name integer used as file identifier\n    /// @param _file_size size of the original in bytes\n    constructor(\n        address _server,\n        uint[2] memory _pk_x,\n        uint[2] memory _pk_y,\n        uint _u_x,\n        uint _u_y,\n        uint _name,\n        uint _file_size\n    )\n        public\n    {\n        if (_file_size == 0) {\n            revert(\"File size must be superior to 0\");\n        }\n\n        if (_server == address(0) || _server == msg.sender) {\n            revert(\"Server address invalid.\");\n        }\n\n        server = _server;\n        public_key = Pairing.G2Point(_pk_x, _pk_y);\n        u = Pairing.G1Point(_u_x, _u_y);\n        name = _name;\n        file_size = _file_size;\n    }\n\n    /// @notice Anybody but the server calls this function in order to submit a\n    ///         new challenge to server. Therefore, the server must answer this\n    ///         challenge by a corresponding proof.\n    ///         Adds the given challenge into the Challenge list.\n    /// @param _i indicates the i-th bit of the original file to challenge\n    /// @param _nu factor chosen by the client making challenge unpredictable\n    function challenge(uint _i, uint _nu) public {\n        if (msg.sender == server) {\n            revert(\"The server is not able to call this function\");\n        }\n\n        uint id = challenges.push(challenges.length);\n\n        // i must NOT be superior to the file size\n        index_challenges[id] = Challenge(_i % file_size, _nu);\n    }\n\n    /// @notice Mathematical answer to the last challenge sent.\n    ///         This function can only be called by the server.\n    /// @param _mu First part of the proof\n    /// @param _sigma_x Abscissa of the second part of the proof\n    /// @param _sigma_y Ordinate of the second part of the proof\n    function proof(uint _mu, uint _sigma_x, uint _sigma_y) public {\n        if (msg.sender != server) {\n            revert(\"Only the server can call this function\");\n        }\n\n        uint id = proofs.push(proofs.length);\n\n        // i must NOT be superior to the file size\n        index_proofs[id] = Proof(_mu, Pairing.G1Point(_sigma_x, _sigma_y), false);\n        verify();\n    }\n\n    /// @notice Verifies if the proof sent by the server is valid according to\n    ///         the last challenge sent by the client.\n    ///         The valid statement will be updated depending on the\n    ///         correctness of the proof.\n    ///         Internal function, automatically called after the proof is sent\n    function verify() internal {\n        Proof storage p = index_proofs[proofs.length];\n        Challenge memory c = index_challenges[challenges.length];\n        Pairing.G1Point memory h = Pairing.curveMul(Pairing.P1(), (name * c.i));\n        h = Pairing.curveMul(h, c.nu);\n        Pairing.G1Point memory res = Pairing.curveMul(u, p.mu);\n        res = Pairing.addition(res, h);\n\n        p.valid = \n            Pairing.pairing2(\n                Pairing.negate(p.sigma),\n                Pairing.P2(),\n                res,\n                public_key\n            );\n    }\n\n    function getChallengesLength() public view returns(uint) {\n        return challenges.length;\n    }\n\n    function getProofsLength() public view returns(uint) {\n        return proofs.length;\n    }\n}",
  "sourcePath": "/home/l.gicquel/Compact/solidity/contracts/Compact.sol",
  "compiler": {
    "name": "solc",
    "version": "0.5.16+commit.9c3226ce.Emscripten.clang"
  },
  "schemaVersion": "3.4.3",
  "updatedAt": "2022-01-03T15:47:55.292Z",
  "networkType": "ethereum",
  "devdoc": {
    "author": "Lucas GICQUEL",
    "methods": {
      "challenge(uint256,uint256)": {
        "params": {
          "_i": "indicates the i-th bit of the original file to challenge",
          "_nu": "factor chosen by the client making challenge unpredictable"
        }
      },
      "constructor": {
        "params": {
          "_file_size": "size of the original in bytes",
          "_name": "integer used as file identifier",
          "_pk_x": "abscissa of the public key",
          "_pk_y": "ordinate of the public key",
          "_u_x": "abscissa of a point u used both to sign and verify",
          "_u_y": "ordinate of a point u used both to sign and verify"
        }
      },
      "proof(uint256,uint256,uint256)": {
        "params": {
          "_mu": "First part of the proof",
          "_sigma_x": "Abscissa of the second part of the proof",
          "_sigma_y": "Ordinate of the second part of the proof"
        }
      }
    },
    "title": "Public Compact Proof of Retrievability Implemantion"
  },
  "userdoc": {
    "methods": {
      "challenge(uint256,uint256)": {
        "notice": "Anybody but the server calls this function in order to submit a         new challenge to server. Therefore, the server must answer this         challenge by a corresponding proof.         Adds the given challenge into the Challenge list."
      },
      "constructor": "Called by a client when she wants to store her file in a         distant server.         She sends all metadata in this part allowing the smart contract         to verify the proofs calculated by the server.",
      "proof(uint256,uint256,uint256)": {
        "notice": "Mathematical answer to the last challenge sent.         This function can only be called by the server."
      }
    },
    "notice": "This smart contract is developed for testing purpose only.         There are no rule implemented in this version to secure the         protocol between the client and the server.         Read Compact Proofs of Retrievability for more information."
  }
}