{
  "contractName": "Compact",
  "abi": [
    {
      "inputs": [
        {
          "internalType": "address",
          "name": "_server",
          "type": "address"
        },
        {
          "internalType": "uint256[2]",
          "name": "_pk_x",
          "type": "uint256[2]"
        },
        {
          "internalType": "uint256[2]",
          "name": "_pk_y",
          "type": "uint256[2]"
        },
        {
          "internalType": "uint256[]",
          "name": "_u_x",
          "type": "uint256[]"
        },
        {
          "internalType": "uint256[]",
          "name": "_u_y",
          "type": "uint256[]"
        },
        {
          "internalType": "uint256",
          "name": "_name",
          "type": "uint256"
        },
        {
          "internalType": "uint256",
          "name": "_file_size",
          "type": "uint256"
        }
      ],
      "payable": false,
      "stateMutability": "nonpayable",
      "type": "constructor"
    },
    {
      "constant": false,
      "inputs": [
        {
          "internalType": "uint256[]",
          "name": "_i",
          "type": "uint256[]"
        },
        {
          "internalType": "uint256[]",
          "name": "_nu",
          "type": "uint256[]"
        }
      ],
      "name": "challenge",
      "outputs": [],
      "payable": false,
      "stateMutability": "nonpayable",
      "type": "function"
    },
    {
      "constant": false,
      "inputs": [
        {
          "internalType": "uint256[]",
          "name": "_mu",
          "type": "uint256[]"
        },
        {
          "internalType": "uint256",
          "name": "_sigma_x",
          "type": "uint256"
        },
        {
          "internalType": "uint256",
          "name": "_sigma_y",
          "type": "uint256"
        }
      ],
      "name": "proof",
      "outputs": [],
      "payable": false,
      "stateMutability": "nonpayable",
      "type": "function"
    },
    {
      "constant": true,
      "inputs": [
        {
          "internalType": "uint256",
          "name": "_id",
          "type": "uint256"
        }
      ],
      "name": "getChallenge",
      "outputs": [
        {
          "components": [
            {
              "internalType": "uint256[]",
              "name": "i",
              "type": "uint256[]"
            },
            {
              "internalType": "uint256[]",
              "name": "nu",
              "type": "uint256[]"
            }
          ],
          "internalType": "struct Compact.Challenge",
          "name": "",
          "type": "tuple"
        }
      ],
      "payable": false,
      "stateMutability": "view",
      "type": "function"
    },
    {
      "constant": true,
      "inputs": [
        {
          "internalType": "uint256",
          "name": "_id",
          "type": "uint256"
        }
      ],
      "name": "getProof",
      "outputs": [
        {
          "components": [
            {
              "internalType": "uint256[]",
              "name": "mu",
              "type": "uint256[]"
            },
            {
              "components": [
                {
                  "internalType": "uint256",
                  "name": "x",
                  "type": "uint256"
                },
                {
                  "internalType": "uint256",
                  "name": "y",
                  "type": "uint256"
                }
              ],
              "internalType": "struct Pairing.G1Point",
              "name": "sigma",
              "type": "tuple"
            },
            {
              "internalType": "bool",
              "name": "valid",
              "type": "bool"
            }
          ],
          "internalType": "struct Compact.Proof",
          "name": "",
          "type": "tuple"
        }
      ],
      "payable": false,
      "stateMutability": "view",
      "type": "function"
    },
    {
      "constant": true,
      "inputs": [],
      "name": "getChallengesLength",
      "outputs": [
        {
          "internalType": "uint256",
          "name": "",
          "type": "uint256"
        }
      ],
      "payable": false,
      "stateMutability": "view",
      "type": "function"
    },
    {
      "constant": true,
      "inputs": [],
      "name": "getProofsLength",
      "outputs": [
        {
          "internalType": "uint256",
          "name": "",
          "type": "uint256"
        }
      ],
      "payable": false,
      "stateMutability": "view",
      "type": "function"
    }
  ],
  "bytecode": "0x60806040523480156200001157600080fd5b50604051620021233803806200212383398181016040526200003791908101906200045e565b60008114156200007e576040517f08c379a000000000000000000000000000000000000000000000000000000000815260040162000075906200066f565b60405180910390fd5b600073ffffffffffffffffffffffffffffffffffffffff168773ffffffffffffffffffffffffffffffffffffffff161480620000e557503373ffffffffffffffffffffffffffffffffffffffff168773ffffffffffffffffffffffffffffffffffffffff16145b1562000128576040517f08c379a00000000000000000000000000000000000000000000000000000000081526004016200011f906200064d565b60405180910390fd5b82518451146200016f576040517f08c379a000000000000000000000000000000000000000000000000000000000815260040162000166906200062b565b60405180910390fd5b866000806101000a81548173ffffffffffffffffffffffffffffffffffffffff021916908373ffffffffffffffffffffffffffffffffffffffff1602179055506040518060400160405280878152602001868152506001600082015181600001906002620001df929190620002b8565b50602082015181600201906002620001f9929190620002b8565b5090505060008090505b84518110156200029c57600560405180604001604052808784815181106200022757fe5b602002602001015181526020018684815181106200024157fe5b6020026020010151815250908060018154018082558091505090600182039060005260206000209060020201600090919290919091506000820151816000015560208201518160010155505050808060010191505062000203565b508160068190555080600781905550505050505050506200078e565b8260028101928215620002ea579160200282015b82811115620002e9578251825591602001919060010190620002cc565b5b509050620002f99190620002fd565b5090565b6200032291905b808211156200031e57600081600090555060010162000304565b5090565b90565b60008151905062000336816200075a565b92915050565b600082601f8301126200034e57600080fd5b6002620003656200035f82620006bf565b62000691565b915081838560208402820111156200037c57600080fd5b60005b83811015620003b0578162000395888262000447565b8452602084019350602083019250506001810190506200037f565b5050505092915050565b600082601f830112620003cc57600080fd5b8151620003e3620003dd82620006e2565b62000691565b915081818352602084019350602081019050838560208402820111156200040957600080fd5b60005b838110156200043d578162000422888262000447565b8452602084019350602083019250506001810190506200040c565b5050505092915050565b600081519050620004588162000774565b92915050565b6000806000806000806000610120888a0312156200047b57600080fd5b60006200048b8a828b0162000325565b97505060206200049e8a828b016200033c565b9650506060620004b18a828b016200033c565b95505060a088015167ffffffffffffffff811115620004cf57600080fd5b620004dd8a828b01620003ba565b94505060c088015167ffffffffffffffff811115620004fb57600080fd5b620005098a828b01620003ba565b93505060e06200051c8a828b0162000447565b925050610100620005308a828b0162000447565b91505092959891949750929550565b60006200054e6028836200070b565b91507f546f2063726561746520706f696e74732c207765206e656564206173206d616e60008301527f79207820617320790000000000000000000000000000000000000000000000006020830152604082019050919050565b6000620005b66017836200070b565b91507f536572766572206164647265737320696e76616c69642e0000000000000000006000830152602082019050919050565b6000620005f8601f836200070b565b91507f46696c652073697a65206d757374206265207375706572696f7220746f2030006000830152602082019050919050565b6000602082019050818103600083015262000646816200053f565b9050919050565b600060208201905081810360008301526200066881620005a7565b9050919050565b600060208201905081810360008301526200068a81620005e9565b9050919050565b6000604051905081810181811067ffffffffffffffff82111715620006b557600080fd5b8060405250919050565b600067ffffffffffffffff821115620006d757600080fd5b602082029050919050565b600067ffffffffffffffff821115620006fa57600080fd5b602082029050602081019050919050565b600082825260208201905092915050565b6000620007298262000730565b9050919050565b600073ffffffffffffffffffffffffffffffffffffffff82169050919050565b6000819050919050565b62000765816200071c565b81146200077157600080fd5b50565b6200077f8162000750565b81146200078b57600080fd5b50565b611985806200079e6000396000f3fe608060405234801561001057600080fd5b50600436106100625760003560e01c806311149ada146100675780631bdd4b7414610097578063aaca168e146100c7578063cfd6d732146100e5578063dbe0a6f014610103578063e51358251461011f575b600080fd5b610081600480360361007c9190810190611376565b61013b565b60405161008e9190611839565b60405180910390f35b6100b160048036036100ac9190810190611376565b610203565b6040516100be9190611817565b60405180910390f35b6100cf6102e0565b6040516100dc919061185b565b60405180910390f35b6100ed6102ed565b6040516100fa919061185b565b60405180910390f35b61011d600480360361011891908101906112a3565b6102fa565b005b6101396004803603610134919081019061130f565b6104d4565b005b61014361104e565b600b6000838152602001908152602001600020604051806060016040529081600082018054806020026020016040519081016040528092919081815260200182805480156101b057602002820191906000526020600020905b81548152602001906001019080831161019c575b50505050508152602001600182016040518060400160405290816000820154815260200160018201548152505081526020016003820160009054906101000a900460ff1615151515815250509050919050565b61020b611077565b600960008381526020019081526020016000206040518060400160405290816000820180548060200260200160405190810160405280929190818152602001828054801561027857602002820191906000526020600020905b815481526020019060010190808311610264575b50505050508152602001600182018054806020026020016040519081016040528092919081815260200182805480156102d057602002820191906000526020600020905b8154815260200190600101908083116102bc575b5050505050815250509050919050565b6000600a80549050905090565b6000600880549050905090565b6000809054906101000a900473ffffffffffffffffffffffffffffffffffffffff1673ffffffffffffffffffffffffffffffffffffffff163373ffffffffffffffffffffffffffffffffffffffff16141561038a576040517f08c379a000000000000000000000000000000000000000000000000000000000815260040161038190611797565b60405180910390fd5b80518251146103ce576040517f08c379a00000000000000000000000000000000000000000000000000000000081526004016103c590611737565b60405180910390fd5b60006008808054905090806001815401808255809150509060018203906000526020600020016000909192909190915055905060008090505b83518110156104ce576009600083815260200190815260200160002060000160075485838151811061043557fe5b60200260200101518161044457fe5b0690806001815401808255809150509060018203906000526020600020016000909192909190915055506009600083815260200190815260200160002060010183828151811061049057fe5b602002602001015190806001815401808255809150509060018203906000526020600020016000909192909190915055508080600101915050610407565b50505050565b6000809054906101000a900473ffffffffffffffffffffffffffffffffffffffff1673ffffffffffffffffffffffffffffffffffffffff163373ffffffffffffffffffffffffffffffffffffffff1614610563576040517f08c379a000000000000000000000000000000000000000000000000000000000815260040161055a90611777565b60405180910390fd5b6000600a80805490509080600181540180825580915050906001820390600052602060002001600090919290919091505590506040518060600160405280858152602001604051806040016040528086815260200185815250815260200160001515815250600b600083815260200190815260200160002060008201518160000190805190602001906105f7929190611091565b506020820151816001016000820151816000015560208201518160010155505060408201518160030160006101000a81548160ff021916908315150217905550905050610642610648565b50505050565b6000600b6000600a805490508152602001908152602001600020905061066c611077565b600960006008805490508152602001908152602001600020604051806040016040529081600082018054806020026020016040519081016040528092919081815260200182805480156106de57602002820191906000526020600020905b8154815260200190600101908083116106ca575b505050505081526020016001820180548060200260200160405190810160405280929190818152602001828054801561073657602002820191906000526020600020905b815481526020019060010190808311610722575b50505050508152505090506107496110de565b6107516110de565b6107596110de565b6107616110de565b60008090505b8560000151518110156107de576107a061077f61096c565b8760000151838151811061078f57fe5b602002602001015160065402610990565b94506107c385876020015183815181106107b657fe5b6020026020010151610990565b94506107cf8486610a54565b93508080600101915050610767565b5060008090505b6005805490508110156108695761084e6005828154811061080257fe5b90600052602060002090600202016040518060400160405290816000820154815260200160018201548152505088600001838154811061083e57fe5b9060005260206000200154610990565b925061085a8284610a54565b915080806001019150506107e5565b506108748184610a54565b90506109496108a48760010160405180604001604052908160008201548152602001600182015481525050610b3f565b6108ac610bd9565b836001604051806040016040529081600082016002806020026040519081016040528092919082600280156108f6576020028201915b8154815260200190600101908083116108e2575b505050505081526020016002820160028060200260405190810160405280929190826002801561093b576020028201915b815481526020019060010190808311610927575b505050505081525050610ca3565b8660030160006101000a81548160ff021916908315150217905550505050505050565b6109746110de565b6040518060400160405280600181526020016002815250905090565b6109986110de565b6109a06110f8565b8360000151816000600381106109b257fe5b6020020181815250508360200151816001600381106109cd57fe5b60200201818152505082816002600381106109e457fe5b60200201818152505060006109f76110de565b6060816080856000600760145a03f1915081610a48576040517f08c379a0000000000000000000000000000000000000000000000000000000008152600401610a3f906117b7565b60405180910390fd5b80935050505092915050565b610a5c6110de565b610a6461111a565b836000015181600060048110610a7657fe5b602002018181525050836020015181600160048110610a9157fe5b602002018181525050826000015181600260048110610aac57fe5b602002018181525050826020015181600360048110610ac757fe5b602002018181525050600060608360c0846000600660145a03f190508060008114610af157610af3565bfe5b5080610b34576040517f08c379a0000000000000000000000000000000000000000000000000000000008152600401610b2b906117d7565b60405180910390fd5b829250505092915050565b610b476110de565b60007f30644e72e131a029b85045b68181585d97816a916871ca8d3c208c16d87cfd47905060008360000151148015610b84575060008360200151145b15610ba8576040518060400160405280600081526020016000815250915050610bd4565b60405180604001604052808460000151815260200182856020015181610bca57fe5b0683038152509150505b919050565b610be161113c565b604051806040016040528060405180604001604052807f198e9393920d483a7260bfb731fb5d25f1aa493335a9e71297e485b7aef312c281526020017f1800deef121f1e76426a00665e5c4479674322d4f75edadd46debd5cd992f6ed815250815260200160405180604001604052807f090689d0585ff075ec9e99ad690c3395bc4b313370b38ef355acdadcd122975b81526020017f12c85ea5db8c6deb4aab71808dcb408fe3d1e7690c43d37b4ce6cc0166fa7daa815250815250905090565b600060606002604051908082528060200260200182016040528015610ce257816020015b610ccf611162565b815260200190600190039081610cc75790505b50905060606002604051908082528060200260200182016040528015610d2257816020015b610d0f61117c565b815260200190600190039081610d075790505b5090508682600081518110610d3357fe5b60200260200101819052508482600181518110610d4c57fe5b60200260200101819052508581600081518110610d6557fe5b60200260200101819052508381600181518110610d7e57fe5b6020026020010181905250610d938282610d9f565b92505050949350505050565b60008151835114610de5576040517f08c379a0000000000000000000000000000000000000000000000000000000008152600401610ddc906117f7565b60405180910390fd5b6000835190506000600682029050606081604051908082528060200260200182016040528015610e245781602001602082028038833980820191505090505b50905060008090505b83811015610fca57868181518110610e4157fe5b602002602001015160000151826000600684020181518110610e5f57fe5b602002602001018181525050868181518110610e7757fe5b602002602001015160200151826001600684020181518110610e9557fe5b602002602001018181525050858181518110610ead57fe5b602002602001015160000151600060028110610ec557fe5b6020020151826002600684020181518110610edc57fe5b602002602001018181525050858181518110610ef457fe5b602002602001015160000151600160028110610f0c57fe5b6020020151826003600684020181518110610f2357fe5b602002602001018181525050858181518110610f3b57fe5b602002602001015160200151600060028110610f5357fe5b6020020151826004600684020181518110610f6a57fe5b602002602001018181525050858181518110610f8257fe5b602002602001015160200151600160028110610f9a57fe5b6020020151826005600684020181518110610fb157fe5b6020026020010181815250508080600101915050610e2d565b50610fd36111a2565b600060208260208602602086016000600860145a03f190508061102b576040517f08c379a000000000000000000000000000000000000000000000000000000000815260040161102290611757565b60405180910390fd5b60008260006001811061103a57fe5b602002015114159550505050505092915050565b604051806060016040528060608152602001611068611162565b81526020016000151581525090565b604051806040016040528060608152602001606081525090565b8280548282559060005260206000209081019282156110cd579160200282015b828111156110cc5782518255916020019190600101906110b1565b5b5090506110da91906111c4565b5090565b604051806040016040528060008152602001600081525090565b6040518060600160405280600390602082028038833980820191505090505090565b6040518060800160405280600490602082028038833980820191505090505090565b604051806040016040528061114f6111e9565b815260200161115c6111e9565b81525090565b604051806040016040528060008152602001600081525090565b604051806040016040528061118f6111e9565b815260200161119c6111e9565b81525090565b6040518060200160405280600190602082028038833980820191505090505090565b6111e691905b808211156111e25760008160009055506001016111ca565b5090565b90565b6040518060400160405280600290602082028038833980820191505090505090565b600082601f83011261121c57600080fd5b813561122f61122a826118a3565b611876565b9150818183526020840193506020810190508385602084028201111561125457600080fd5b60005b83811015611284578161126a888261128e565b845260208401935060208301925050600181019050611257565b5050505092915050565b60008135905061129d8161192b565b92915050565b600080604083850312156112b657600080fd5b600083013567ffffffffffffffff8111156112d057600080fd5b6112dc8582860161120b565b925050602083013567ffffffffffffffff8111156112f957600080fd5b6113058582860161120b565b9150509250929050565b60008060006060848603121561132457600080fd5b600084013567ffffffffffffffff81111561133e57600080fd5b61134a8682870161120b565b935050602061135b8682870161128e565b925050604061136c8682870161128e565b9150509250925092565b60006020828403121561138857600080fd5b60006113968482850161128e565b91505092915050565b60006113ab8383611719565b60208301905092915050565b60006113c2826118db565b6113cc81856118f3565b93506113d7836118cb565b8060005b838110156114085781516113ef888261139f565b97506113fa836118e6565b9250506001810190506113db565b5085935050505092915050565b61141e81611915565b82525050565b6000611431603383611904565b91507f4561636820692d746820626974206e656564206120666163746f72206e75207460008301527f6f20636f6d70757465207468652070726f6f66000000000000000000000000006020830152604082019050919050565b6000611497601983611904565b91507f50616972696e67206f7065726174696f6e206661696c65642e000000000000006000830152602082019050919050565b60006114d7602683611904565b91507f4f6e6c7920746865207365727665722063616e2063616c6c207468697320667560008301527f6e6374696f6e00000000000000000000000000000000000000000000000000006020830152604082019050919050565b600061153d602c83611904565b91507f54686520736572766572206973206e6f742061626c6520746f2063616c6c207460008301527f6869732066756e6374696f6e00000000000000000000000000000000000000006020830152604082019050919050565b60006115a3601c83611904565b91507f506f696e74206d756c7469706c69636174696f6e206661696c65642e000000006000830152602082019050919050565b60006115e3601583611904565b91507f506f696e74206164646974696f6e206661696c656400000000000000000000006000830152602082019050919050565b6000611623601583611904565b91507f506f696e7420636f756e74206d69736d617463682e00000000000000000000006000830152602082019050919050565b6000604083016000830151848203600086015261167382826113b7565b9150506020830151848203602086015261168d82826113b7565b9150508091505092915050565b6040820160008201516116b06000850182611719565b5060208201516116c36020850182611719565b50505050565b600060808301600083015184820360008601526116e682826113b7565b91505060208301516116fb602086018261169a565b50604083015161170e6060860182611415565b508091505092915050565b61172281611921565b82525050565b61173181611921565b82525050565b6000602082019050818103600083015261175081611424565b9050919050565b600060208201905081810360008301526117708161148a565b9050919050565b60006020820190508181036000830152611790816114ca565b9050919050565b600060208201905081810360008301526117b081611530565b9050919050565b600060208201905081810360008301526117d081611596565b9050919050565b600060208201905081810360008301526117f0816115d6565b9050919050565b6000602082019050818103600083015261181081611616565b9050919050565b600060208201905081810360008301526118318184611656565b905092915050565b6000602082019050818103600083015261185381846116c9565b905092915050565b60006020820190506118706000830184611728565b92915050565b6000604051905081810181811067ffffffffffffffff8211171561189957600080fd5b8060405250919050565b600067ffffffffffffffff8211156118ba57600080fd5b602082029050602081019050919050565b6000819050602082019050919050565b600081519050919050565b6000602082019050919050565b600082825260208201905092915050565b600082825260208201905092915050565b60008115159050919050565b6000819050919050565b61193481611921565b811461193f57600080fd5b5056fea365627a7a72315820b1b41a5c4fe1cc6e900420612950798b94f93548c95affbf766b01e918b6189a6c6578706572696d656e74616cf564736f6c63430005100040",
  "source": "// SPDX-License-Identifier: MIT\npragma solidity >=0.4.22 <0.9.0;\npragma experimental ABIEncoderV2;\n\nimport \"./Pairing.sol\";\n\n/// @title Public Compact Proof of Retrievability Implemantion\n/// @notice This smart contract is developed for testing purpose only.\n///         There are no rule implemented in this version to secure the\n///         protocol between the client and the server.\n///         Read Compact Proofs of Retrievability for more information.\n/// @author Lucas GICQUEL\ncontract Compact {\n    \n    // to control access to specific functions, I store the server address\n    address server;\n\n    // client metadata used to verify each proof\n    Pairing.G2Point public_key;\n    Pairing.G1Point[] u;\n    uint name;\n    uint file_size;\n\n    /**\n     * A challenge, sent by anyone but the server, is defined by two integers:\n     *      - i: i-th bit of file to challenge (0 <= i < file_size)\n     *      - nu: independant factor chosen by the client, making each\n     *           challenge unique and unpredictable\n     */\n    struct Challenge {\n        uint[] i;\n        uint[] nu;\n    }\n\n    /**\n     * Proof calculated by the server, it mathematically proves that she truly\n     * store the file.\n     * Valid state is true if the proof is valid, false otherwise.\n     */\n    struct Proof {\n        uint[] mu;\n        Pairing.G1Point sigma;\n        bool valid;\n    }\n\n    uint[] challenges;\n    mapping(uint => Challenge) index_challenges;\n\n    uint[] proofs;\n    mapping(uint => Proof) index_proofs;\n\n    /// @notice Called by a client when she wants to store her file in a\n    ///         distant server.\n    ///         She sends all metadata in this part allowing the smart contract\n    ///         to verify the proofs calculated by the server.\n    /// @param _pk_x abscissa of the public key\n    /// @param _pk_y ordinate of the public key\n    /// @param _u_x abscissa of a point u used both to sign and verify\n    /// @param _u_y ordinate of a point u used both to sign and verify\n    /// @param _name integer used as file identifier\n    /// @param _file_size size of the original in bytes\n    constructor(\n        address _server,\n        uint[2] memory _pk_x,\n        uint[2] memory _pk_y,\n        uint[] memory _u_x,\n        uint[] memory _u_y,\n        uint _name,\n        uint _file_size\n    )\n        public\n    {\n        if (_file_size == 0) {\n            revert(\"File size must be superior to 0\");\n        }\n\n        if (_server == address(0) || _server == msg.sender) {\n            revert(\"Server address invalid.\");\n        }\n\n        if (_u_x.length != _u_y.length) {\n            revert(\"To create points, we need as many x as y\");\n        }\n\n        server = _server;\n        public_key = Pairing.G2Point(_pk_x, _pk_y);\n\n        for(uint i = 0; i < _u_x.length; i++){\n            u.push(Pairing.G1Point(_u_x[i], _u_y[i]));\n        }\n\n        name = _name;\n        file_size = _file_size;\n    }\n\n    /// @notice Anybody but the server calls this function in order to submit a\n    ///         new challenge to server. Therefore, the server must answer this\n    ///         challenge by a corresponding proof.\n    ///         Adds the given challenge into the Challenge list.\n    /// @param _i indicates the i-th bit of the original file to challenge\n    /// @param _nu factor chosen by the client making challenge unpredictable\n    function challenge(uint[] memory _i, uint[] memory _nu) public {\n        if (msg.sender == server) {\n            revert(\"The server is not able to call this function\");\n        }\n\n        if (_i.length != _nu.length) {\n            revert(\"Each i-th bit need a factor nu to compute the proof\");\n        }\n\n        uint id = challenges.push(challenges.length);\n\n        // i must NOT be superior to the file size\n        for(uint j = 0; j < _i.length; j++) {\n            index_challenges[id].i.push(_i[j] % file_size);\n            index_challenges[id].nu.push(_nu[j]);\n        }\n    }\n\n    /// @notice Mathematical answer to the last challenge sent.\n    ///         This function can only be called by the server.\n    /// @param _mu First part of the proof\n    /// @param _sigma_x Abscissa of the second part of the proof\n    /// @param _sigma_y Ordinate of the second part of the proof\n    function proof(uint[] memory _mu, uint _sigma_x, uint _sigma_y) public {\n        if (msg.sender != server) {\n            revert(\"Only the server can call this function\");\n        }\n\n        uint id = proofs.push(proofs.length);\n\n        // i must NOT be superior to the file size\n        index_proofs[id] = Proof(_mu, Pairing.G1Point(_sigma_x, _sigma_y), false);\n        verify();\n    }\n\n    /// @notice Verifies if the proof sent by the server is valid according to\n    ///         the last challenge sent by the client.\n    ///         The valid statement will be updated depending on the\n    ///         correctness of the proof.\n    ///         Internal function, automatically called after the proof is sent\n    function verify() internal {\n        Proof storage p = index_proofs[proofs.length];\n        Challenge memory c = index_challenges[challenges.length];\n        Pairing.G1Point memory h;\n        Pairing.G1Point memory res_h;\n        Pairing.G1Point memory res_u;\n        Pairing.G1Point memory res;\n\n        for (uint j = 0; j < c.i.length; j++) {\n            h = Pairing.curveMul(Pairing.P1(), (name * c.i[j]));\n            h = Pairing.curveMul(h, c.nu[j]);\n            res_h = Pairing.addition(res_h, h);\n        }\n\n        for (uint j = 0; j < u.length; j++) {\n            res_u = Pairing.curveMul(u[j], p.mu[j]);\n            res = Pairing.addition(res, res_u);\n        }\n\n        res = Pairing.addition(res, res_h);\n\n        p.valid = \n            Pairing.pairing2(\n                Pairing.negate(p.sigma),\n                Pairing.P2(),\n                res,\n                public_key\n            );\n    }\n\n    /// @notice gets the challenge with the identifier given in parameter\n    /// @param _id identifier of the challenge to return\n    /// @return the challenge with the identifier <id>\n    function getChallenge(uint _id) public view returns(Challenge memory) {\n        return index_challenges[_id];\n    }\n\n    /// @notice gets the proof with the identifier given in parameter\n    /// @param _id identifier of the proof to return\n    /// @return the proof with identifier <id>\n    function getProof(uint _id) public view returns(Proof memory) {\n        return index_proofs[_id];\n    }\n\n    /// @notice gets the number of all challenges sent\n    /// @return the number of all challenges sent\n    function getChallengesLength() public view returns(uint) {\n        return challenges.length;\n    }\n\n    /// @notice gets the number of all proofs sent\n    /// @return the number of all proofs sent\n    function getProofsLength() public view returns(uint) {\n        return proofs.length;\n    }\n}",
  "sourcePath": "/home/l.gicquel/Compact/solidity/contracts/Compact.sol",
  "compiler": {
    "name": "solc",
    "version": "0.5.16+commit.9c3226ce.Emscripten.clang"
  },
  "schemaVersion": "3.4.3",
  "updatedAt": "2022-01-04T14:15:17.883Z",
  "networkType": "ethereum",
  "devdoc": {
    "author": "Lucas GICQUEL",
    "methods": {
      "challenge(uint256[],uint256[])": {
        "params": {
          "_i": "indicates the i-th bit of the original file to challenge",
          "_nu": "factor chosen by the client making challenge unpredictable"
        }
      },
      "constructor": {
        "params": {
          "_file_size": "size of the original in bytes",
          "_name": "integer used as file identifier",
          "_pk_x": "abscissa of the public key",
          "_pk_y": "ordinate of the public key",
          "_u_x": "abscissa of a point u used both to sign and verify",
          "_u_y": "ordinate of a point u used both to sign and verify"
        }
      },
      "getChallenge(uint256)": {
        "params": {
          "_id": "identifier of the challenge to return"
        },
        "return": "the challenge with the identifier <id>"
      },
      "getChallengesLength()": {
        "return": "the number of all challenges sent"
      },
      "getProof(uint256)": {
        "params": {
          "_id": "identifier of the proof to return"
        },
        "return": "the proof with identifier <id>"
      },
      "getProofsLength()": {
        "return": "the number of all proofs sent"
      },
      "proof(uint256[],uint256,uint256)": {
        "params": {
          "_mu": "First part of the proof",
          "_sigma_x": "Abscissa of the second part of the proof",
          "_sigma_y": "Ordinate of the second part of the proof"
        }
      }
    },
    "title": "Public Compact Proof of Retrievability Implemantion"
  },
  "userdoc": {
    "methods": {
      "challenge(uint256[],uint256[])": {
        "notice": "Anybody but the server calls this function in order to submit a         new challenge to server. Therefore, the server must answer this         challenge by a corresponding proof.         Adds the given challenge into the Challenge list."
      },
      "constructor": "Called by a client when she wants to store her file in a         distant server.         She sends all metadata in this part allowing the smart contract         to verify the proofs calculated by the server.",
      "getChallenge(uint256)": {
        "notice": "gets the challenge with the identifier given in parameter"
      },
      "getChallengesLength()": {
        "notice": "gets the number of all challenges sent"
      },
      "getProof(uint256)": {
        "notice": "gets the proof with the identifier given in parameter"
      },
      "getProofsLength()": {
        "notice": "gets the number of all proofs sent"
      },
      "proof(uint256[],uint256,uint256)": {
        "notice": "Mathematical answer to the last challenge sent.         This function can only be called by the server."
      }
    },
    "notice": "This smart contract is developed for testing purpose only.         There are no rule implemented in this version to secure the         protocol between the client and the server.         Read Compact Proofs of Retrievability for more information."
  }
}